{
  "address": "0x911148dCFf665323702cb57fC84DB5d226a79053",
  "abi": [
    {
      "anonymous": false,
      "inputs": [
        {
          "indexed": true,
          "internalType": "address",
          "name": "previousOwner",
          "type": "address"
        },
        {
          "indexed": true,
          "internalType": "address",
          "name": "newOwner",
          "type": "address"
        }
      ],
      "name": "OwnershipTransferred",
      "type": "event"
    },
    {
      "anonymous": false,
      "inputs": [
        {
          "indexed": false,
          "internalType": "address",
          "name": "account",
          "type": "address"
        }
      ],
      "name": "Paused",
      "type": "event"
    },
    {
      "anonymous": false,
      "inputs": [
        {
          "indexed": false,
          "internalType": "address",
          "name": "token",
          "type": "address"
        },
        {
          "indexed": false,
          "internalType": "uint256",
          "name": "amount",
          "type": "uint256"
        }
      ],
      "name": "Recovered",
      "type": "event"
    },
    {
      "anonymous": false,
      "inputs": [
        {
          "indexed": false,
          "internalType": "uint256",
          "name": "reward",
          "type": "uint256"
        }
      ],
      "name": "RewardAdded",
      "type": "event"
    },
    {
      "anonymous": false,
      "inputs": [
        {
          "indexed": true,
          "internalType": "address",
          "name": "user",
          "type": "address"
        },
        {
          "indexed": false,
          "internalType": "uint256",
          "name": "reward",
          "type": "uint256"
        }
      ],
      "name": "RewardPaid",
      "type": "event"
    },
    {
      "anonymous": false,
      "inputs": [
        {
          "indexed": false,
          "internalType": "address",
          "name": "newDistribution",
          "type": "address"
        }
      ],
      "name": "RewardsDistributionUpdated",
      "type": "event"
    },
    {
      "anonymous": false,
      "inputs": [
        {
          "indexed": false,
          "internalType": "uint256",
          "name": "newDuration",
          "type": "uint256"
        }
      ],
      "name": "RewardsDurationUpdated",
      "type": "event"
    },
    {
      "anonymous": false,
      "inputs": [
        {
          "indexed": true,
          "internalType": "address",
          "name": "user",
          "type": "address"
        },
        {
          "indexed": false,
          "internalType": "uint256",
          "name": "amount",
          "type": "uint256"
        }
      ],
      "name": "Staked",
      "type": "event"
    },
    {
      "anonymous": false,
      "inputs": [
        {
          "indexed": false,
          "internalType": "address",
          "name": "account",
          "type": "address"
        }
      ],
      "name": "Unpaused",
      "type": "event"
    },
    {
      "anonymous": false,
      "inputs": [
        {
          "indexed": true,
          "internalType": "address",
          "name": "user",
          "type": "address"
        },
        {
          "indexed": false,
          "internalType": "uint256",
          "name": "amount",
          "type": "uint256"
        }
      ],
      "name": "Withdrawn",
      "type": "event"
    },
    {
      "inputs": [
        {
          "internalType": "address",
          "name": "account",
          "type": "address"
        }
      ],
      "name": "balanceOf",
      "outputs": [
        {
          "internalType": "uint256",
          "name": "",
          "type": "uint256"
        }
      ],
      "stateMutability": "view",
      "type": "function"
    },
    {
      "inputs": [
        {
          "internalType": "address",
          "name": "account",
          "type": "address"
        }
      ],
      "name": "earned",
      "outputs": [
        {
          "internalType": "uint256",
          "name": "",
          "type": "uint256"
        }
      ],
      "stateMutability": "view",
      "type": "function"
    },
    {
      "inputs": [],
      "name": "exit",
      "outputs": [],
      "stateMutability": "nonpayable",
      "type": "function"
    },
    {
      "inputs": [],
      "name": "getReward",
      "outputs": [],
      "stateMutability": "nonpayable",
      "type": "function"
    },
    {
      "inputs": [],
      "name": "getRewardForDuration",
      "outputs": [
        {
          "internalType": "uint256",
          "name": "",
          "type": "uint256"
        }
      ],
      "stateMutability": "view",
      "type": "function"
    },
    {
      "inputs": [
        {
          "internalType": "address",
          "name": "_rewardsDistribution",
          "type": "address"
        },
        {
          "internalType": "address",
          "name": "_rewardsToken",
          "type": "address"
        },
        {
          "internalType": "address",
          "name": "_stakingToken",
          "type": "address"
        },
        {
          "internalType": "uint256",
          "name": "_rewardsDuration",
          "type": "uint256"
        },
        {
          "internalType": "uint256",
          "name": "_lockPeriod",
          "type": "uint256"
        }
      ],
      "name": "initialize",
      "outputs": [],
      "stateMutability": "nonpayable",
      "type": "function"
    },
    {
      "inputs": [
        {
          "internalType": "address",
          "name": "",
          "type": "address"
        }
      ],
      "name": "lastStakeTime",
      "outputs": [
        {
          "internalType": "uint256",
          "name": "",
          "type": "uint256"
        }
      ],
      "stateMutability": "view",
      "type": "function"
    },
    {
      "inputs": [],
      "name": "lastTimeRewardApplicable",
      "outputs": [
        {
          "internalType": "uint256",
          "name": "",
          "type": "uint256"
        }
      ],
      "stateMutability": "view",
      "type": "function"
    },
    {
      "inputs": [],
      "name": "lastUpdateTime",
      "outputs": [
        {
          "internalType": "uint256",
          "name": "",
          "type": "uint256"
        }
      ],
      "stateMutability": "view",
      "type": "function"
    },
    {
      "inputs": [],
      "name": "lockPeriod",
      "outputs": [
        {
          "internalType": "uint256",
          "name": "",
          "type": "uint256"
        }
      ],
      "stateMutability": "view",
      "type": "function"
    },
    {
      "inputs": [
        {
          "internalType": "uint256",
          "name": "reward",
          "type": "uint256"
        }
      ],
      "name": "notifyRewardAmount",
      "outputs": [],
      "stateMutability": "nonpayable",
      "type": "function"
    },
    {
      "inputs": [],
      "name": "owner",
      "outputs": [
        {
          "internalType": "address",
          "name": "",
          "type": "address"
        }
      ],
      "stateMutability": "view",
      "type": "function"
    },
    {
      "inputs": [],
      "name": "pause",
      "outputs": [],
      "stateMutability": "nonpayable",
      "type": "function"
    },
    {
      "inputs": [],
      "name": "paused",
      "outputs": [
        {
          "internalType": "bool",
          "name": "",
          "type": "bool"
        }
      ],
      "stateMutability": "view",
      "type": "function"
    },
    {
      "inputs": [],
      "name": "periodFinish",
      "outputs": [
        {
          "internalType": "uint256",
          "name": "",
          "type": "uint256"
        }
      ],
      "stateMutability": "view",
      "type": "function"
    },
    {
      "inputs": [
        {
          "internalType": "address",
          "name": "tokenAddress",
          "type": "address"
        },
        {
          "internalType": "uint256",
          "name": "tokenAmount",
          "type": "uint256"
        }
      ],
      "name": "recoverERC20",
      "outputs": [],
      "stateMutability": "nonpayable",
      "type": "function"
    },
    {
      "inputs": [],
      "name": "renounceOwnership",
      "outputs": [],
      "stateMutability": "nonpayable",
      "type": "function"
    },
    {
      "inputs": [],
      "name": "rewardPerToken",
      "outputs": [
        {
          "internalType": "uint256",
          "name": "",
          "type": "uint256"
        }
      ],
      "stateMutability": "view",
      "type": "function"
    },
    {
      "inputs": [],
      "name": "rewardPerTokenStored",
      "outputs": [
        {
          "internalType": "uint256",
          "name": "",
          "type": "uint256"
        }
      ],
      "stateMutability": "view",
      "type": "function"
    },
    {
      "inputs": [],
      "name": "rewardRate",
      "outputs": [
        {
          "internalType": "uint256",
          "name": "",
          "type": "uint256"
        }
      ],
      "stateMutability": "view",
      "type": "function"
    },
    {
      "inputs": [
        {
          "internalType": "address",
          "name": "",
          "type": "address"
        }
      ],
      "name": "rewards",
      "outputs": [
        {
          "internalType": "uint256",
          "name": "",
          "type": "uint256"
        }
      ],
      "stateMutability": "view",
      "type": "function"
    },
    {
      "inputs": [],
      "name": "rewardsDistribution",
      "outputs": [
        {
          "internalType": "address",
          "name": "",
          "type": "address"
        }
      ],
      "stateMutability": "view",
      "type": "function"
    },
    {
      "inputs": [],
      "name": "rewardsDuration",
      "outputs": [
        {
          "internalType": "uint256",
          "name": "",
          "type": "uint256"
        }
      ],
      "stateMutability": "view",
      "type": "function"
    },
    {
      "inputs": [],
      "name": "rewardsToken",
      "outputs": [
        {
          "internalType": "contract IERC20Upgradeable",
          "name": "",
          "type": "address"
        }
      ],
      "stateMutability": "view",
      "type": "function"
    },
    {
      "inputs": [
        {
          "internalType": "uint256",
          "name": "_lockPeriod",
          "type": "uint256"
        }
      ],
      "name": "setLockPeriod",
      "outputs": [],
      "stateMutability": "nonpayable",
      "type": "function"
    },
    {
      "inputs": [
        {
          "internalType": "address",
          "name": "_rewardsDistribution",
          "type": "address"
        }
      ],
      "name": "setRewardsDistribution",
      "outputs": [],
      "stateMutability": "nonpayable",
      "type": "function"
    },
    {
      "inputs": [
        {
          "internalType": "uint256",
          "name": "_rewardsDuration",
          "type": "uint256"
        }
      ],
      "name": "setRewardsDuration",
      "outputs": [],
      "stateMutability": "nonpayable",
      "type": "function"
    },
    {
      "inputs": [
        {
          "internalType": "uint256",
          "name": "amount",
          "type": "uint256"
        }
      ],
      "name": "stake",
      "outputs": [],
      "stateMutability": "nonpayable",
      "type": "function"
    },
    {
      "inputs": [],
      "name": "stakingToken",
      "outputs": [
        {
          "internalType": "contract IERC20Upgradeable",
          "name": "",
          "type": "address"
        }
      ],
      "stateMutability": "view",
      "type": "function"
    },
    {
      "inputs": [],
      "name": "totalSupply",
      "outputs": [
        {
          "internalType": "uint256",
          "name": "",
          "type": "uint256"
        }
      ],
      "stateMutability": "view",
      "type": "function"
    },
    {
      "inputs": [
        {
          "internalType": "address",
          "name": "newOwner",
          "type": "address"
        }
      ],
      "name": "transferOwnership",
      "outputs": [],
      "stateMutability": "nonpayable",
      "type": "function"
    },
    {
      "inputs": [],
      "name": "unpause",
      "outputs": [],
      "stateMutability": "nonpayable",
      "type": "function"
    },
    {
      "inputs": [
        {
          "internalType": "address",
          "name": "",
          "type": "address"
        }
      ],
      "name": "userRewardPerTokenPaid",
      "outputs": [
        {
          "internalType": "uint256",
          "name": "",
          "type": "uint256"
        }
      ],
      "stateMutability": "view",
      "type": "function"
    },
    {
      "inputs": [
        {
          "internalType": "uint256",
          "name": "amount",
          "type": "uint256"
        }
      ],
      "name": "withdraw",
      "outputs": [],
      "stateMutability": "nonpayable",
      "type": "function"
    }
  ],
  "transactionHash": "0x2d789921cc5ab246150829db8e3bbac2f8e6d076bd5891a2749e779226fe4634",
  "args": [],
  "numDeployments": 1,
  "solcInputHash": "3ecb2d362b414898ed6879e858940097",
  "bytecode": "0x608060405234801561001057600080fd5b50611c3c806100206000396000f3fe608060405234801561001057600080fd5b50600436106102055760003560e01c80637b0a47ee1161011a578063a6b63eb8116100ad578063d1af0c7d1161007c578063d1af0c7d1461041c578063df136d651461042f578063e9fad8ee14610438578063ebe2b12b14610440578063f2fde38b1461044957600080fd5b8063a6b63eb8146103e5578063c8f33c91146103f8578063cc1a378f14610401578063cd3daf9d1461041457600080fd5b80638980f11f116100e95780638980f11f1461038e5780638b876347146103a15780638da5cb5b146103c1578063a694fc3a146103d257600080fd5b80637b0a47ee146103555780637bb1ca191461035e57806380faa57d1461037e5780638456cb591461038657600080fd5b80633d18b9121161019d5780635c975abb1161016c5780635c975abb146102e857806370a08231146102fe578063715018a61461032757806372f702f31461032f578063779972da1461034257600080fd5b80633d18b912146102a45780633f4ba83a146102ac5780633fc6df6e146102b45780633fd8b02f146102df57600080fd5b80631c1f78eb116101d95780631c1f78eb1461026d5780632e1a7d4d14610275578063386a9525146102885780633c6b16ab1461029157600080fd5b80628cc2621461020a5780630700037d1461023057806318160ddd146102505780631976214314610258575b600080fd5b61021d61021836600461197e565b61045c565b6040519081526020015b60405180910390f35b61021d61023e36600461197e565b60d36020526000908152604090205481565b60d45461021d565b61026b61026636600461197e565b6104d9565b005b61021d6105b7565b61026b610283366004611a35565b6105ce565b61021d60ce5481565b61026b61029f366004611a35565b610781565b61026b6108fc565b61026b610a54565b60d1546102c7906001600160a01b031681565b6040516001600160a01b039091168152602001610227565b61021d60cb5481565b60975460ff166040519015158152602001610227565b61021d61030c36600461197e565b6001600160a01b0316600090815260d5602052604090205490565b61026b610a88565b60ca546102c7906001600160a01b031681565b61026b610350366004611a35565b610abc565b61021d60cd5481565b61021d61036c36600461197e565b60d66020526000908152604090205481565b61021d610aeb565b61026b610b02565b61026b61039c3660046119ec565b610b34565b61021d6103af36600461197e565b60d26020526000908152604090205481565b6033546001600160a01b03166102c7565b61026b6103e0366004611a35565b610c44565b61026b6103f3366004611998565b610de7565b61021d60cf5481565b61026b61040f366004611a35565b611006565b61021d611102565b60c9546102c7906001600160a01b031681565b61021d60d05481565b61026b611164565b61021d60cc5481565b61026b61045736600461197e565b611185565b6001600160a01b038116600090815260d3602090815260408083205460d2909252822054670de0b6b3a764000090610492611102565b61049c9190611bad565b6001600160a01b038516600090815260d560205260409020546104bf9190611b8e565b6104c99190611b6e565b6104d39190611b56565b92915050565b6033546001600160a01b0316331461050c5760405162461bcd60e51b815260040161050390611aea565b60405180910390fd5b6001600160a01b0381166105625760405162461bcd60e51b815260206004820152601e60248201527f726577617264446973747269627574696f6e206d757374206e6f7420307800006044820152606401610503565b60d180546001600160a01b0319166001600160a01b0383169081179091556040519081527f1c794a043683a294127c95bc365bae91b63b651eb9884a2c9120afee2bb690b4906020015b60405180910390a150565b600060ce5460cd546105c99190611b8e565b905090565b600260655414156105f15760405162461bcd60e51b815260040161050390611b1f565b6002606555336105ff611102565b60d05561060a610aeb565b60cf556001600160a01b03811615610651576106258161045c565b6001600160a01b038216600090815260d3602090815260408083209390935560d05460d2909152919020555b600082116106955760405162461bcd60e51b8152602060048201526011602482015270043616e6e6f74207769746864726177203607c1b6044820152606401610503565b60cb5433600090815260d6602052604090205442916106b391611b56565b11156106f05760405162461bcd60e51b815260206004820152600c60248201526b14dd1a5b1b081b1bd8dad95960a21b6044820152606401610503565b8160d460008282546107029190611bad565b909155505033600090815260d5602052604081208054849290610726908490611bad565b909155505060ca54610742906001600160a01b03163384611220565b60405182815233907f7084f5476618d8e60b11ef0d7d3f06914655adb8793e28ff7f018d4c76d505d5906020015b60405180910390a250506001606555565b600061078b611102565b60d055610796610aeb565b60cf556001600160a01b038116156107dd576107b18161045c565b6001600160a01b038216600090815260d3602090815260408083209390935560d05460d2909152919020555b60d1546001600160a01b031633146108375760405162461bcd60e51b815260206004820152601760248201527f4e6f742072657761726473446973747269627574696f6e0000000000000000006044820152606401610503565b60c95461084f906001600160a01b0316333085611288565b60cc54421061086d5760ce546108659083611b6e565b60cd556108af565b60004260cc5461087d9190611bad565b9050600060cd548261088f9190611b8e565b60ce5490915061089f8286611b56565b6108a99190611b6e565b60cd5550505b4260cf81905560ce546108c191611b56565b60cc556040518281527fde88a922e0d3b88b24e9623efeb464919c6bf9f66857a65e2bfcf2ce87a9433d906020015b60405180910390a15050565b6002606554141561091f5760405162461bcd60e51b815260040161050390611b1f565b60026065553361092d611102565b60d055610938610aeb565b60cf556001600160a01b0381161561097f576109538161045c565b6001600160a01b038216600090815260d3602090815260408083209390935560d05460d2909152919020555b60cb5433600090815260d66020526040902054429161099d91611b56565b11156109da5760405162461bcd60e51b815260206004820152600c60248201526b14dd1a5b1b081b1bd8dad95960a21b6044820152606401610503565b33600090815260d360205260409020548015610a4b5733600081815260d3602052604081205560c954610a19916001600160a01b039091169083611220565b60405181815233907fe2403640ba68fed3a2f88b7557551d1993f84b99bb10ff833f0cf8db0c5e048690602001610770565b50506001606555565b6033546001600160a01b03163314610a7e5760405162461bcd60e51b815260040161050390611aea565b610a866112c6565b565b6033546001600160a01b03163314610ab25760405162461bcd60e51b815260040161050390611aea565b610a866000611359565b6033546001600160a01b03163314610ae65760405162461bcd60e51b815260040161050390611aea565b60cb55565b600060cc544210610afd575060cc5490565b504290565b6033546001600160a01b03163314610b2c5760405162461bcd60e51b815260040161050390611aea565b610a866113ab565b6033546001600160a01b03163314610b5e5760405162461bcd60e51b815260040161050390611aea565b60ca546001600160a01b03838116911614801590610b8a575060c9546001600160a01b03838116911614155b610bf15760405162461bcd60e51b815260206004820152603260248201527f43616e6e6f7420776974686472617720746865207374616b696e6720746f6b65604482015271371030b732103932bbb0b932103a37b5b2b760711b6064820152608401610503565b610c056001600160a01b0383163383611220565b604080516001600160a01b0384168152602081018390527f8c1256b8896378cd5044f80c202f9772b9d77dc85c8a6eb51967210b09bfaa2891016108f0565b60026065541415610c675760405162461bcd60e51b815260040161050390611b1f565b600260655560975460ff1615610cb25760405162461bcd60e51b815260206004820152601060248201526f14185d5cd8589b194e881c185d5cd95960821b6044820152606401610503565b33610cbb611102565b60d055610cc6610aeb565b60cf556001600160a01b03811615610d0d57610ce18161045c565b6001600160a01b038216600090815260d3602090815260408083209390935560d05460d2909152919020555b60008211610d4e5760405162461bcd60e51b815260206004820152600e60248201526d043616e6e6f74207374616b6520360941b6044820152606401610503565b8160d46000828254610d609190611b56565b909155505033600090815260d5602052604081208054849290610d84908490611b56565b909155505033600081815260d66020526040902042905560ca54610db5916001600160a01b03909116903085611288565b60405182815233907f9e71bc8eea02a63969f509818f2dafb9254532904319f9dbda79b67bd34a5f3d90602001610770565b600054610100900460ff1680610e00575060005460ff16155b610e1c5760405162461bcd60e51b815260040161050390611a9c565b600054610100900460ff16158015610e3e576000805461ffff19166101011790555b6001600160a01b038516610e945760405162461bcd60e51b815260206004820152601760248201527f726577617264546f6b656e206d757374206e6f742030780000000000000000006044820152606401610503565b6001600160a01b038416610eea5760405162461bcd60e51b815260206004820152601860248201527f7374616b696e67546f6b656e206d757374206e6f7420307800000000000000006044820152606401610503565b6001600160a01b038616610f405760405162461bcd60e51b815260206004820152601e60248201527f726577617264446973747269627574696f6e206d757374206e6f7420307800006044820152606401610503565b82610f8d5760405162461bcd60e51b815260206004820152601a60248201527f726577617264734475726174696f6e206d757374206e6f7420300000000000006044820152606401610503565b610f95611426565b610f9d6114a1565b610fa5611500565b60c980546001600160a01b038088166001600160a01b03199283161790925560ca805487841690831617905560d180549289169290911691909117905560ce83905560cb8290558015610ffe576000805461ff00191690555b505050505050565b6033546001600160a01b031633146110305760405162461bcd60e51b815260040161050390611aea565b60cc5442116110cd5760405162461bcd60e51b815260206004820152605860248201527f50726576696f7573207265776172647320706572696f64206d7573742062652060448201527f636f6d706c657465206265666f7265206368616e67696e67207468652064757260648201527f6174696f6e20666f7220746865206e657720706572696f640000000000000000608482015260a401610503565b60ce8190556040518181527ffb46ca5a5e06d4540d6387b930a7c978bce0db5f449ec6b3f5d07c6e1d44f2d3906020016105ac565b600060d45460001415611116575060d05490565b60d45460cd5460cf54611127610aeb565b6111319190611bad565b61113b9190611b8e565b61114d90670de0b6b3a7640000611b8e565b6111579190611b6e565b60d0546105c99190611b56565b33600090815260d5602052604090205461117d906105ce565b610a866108fc565b6033546001600160a01b031633146111af5760405162461bcd60e51b815260040161050390611aea565b6001600160a01b0381166112145760405162461bcd60e51b815260206004820152602660248201527f4f776e61626c653a206e6577206f776e657220697320746865207a65726f206160448201526564647265737360d01b6064820152608401610503565b61121d81611359565b50565b6040516001600160a01b03831660248201526044810182905261128390849063a9059cbb60e01b906064015b60408051601f198184030181529190526020810180516001600160e01b03166001600160e01b031990931692909217909152611567565b505050565b6040516001600160a01b03808516602483015283166044820152606481018290526112c09085906323b872dd60e01b9060840161124c565b50505050565b60975460ff1661130f5760405162461bcd60e51b815260206004820152601460248201527314185d5cd8589b194e881b9bdd081c185d5cd95960621b6044820152606401610503565b6097805460ff191690557f5db9ee0a495bf2e6ff9c91a7834c1ba4fdd244a5e8aa4e537bd38aeae4b073aa335b6040516001600160a01b03909116815260200160405180910390a1565b603380546001600160a01b038381166001600160a01b0319831681179093556040519116919082907f8be0079c531659141344cd1fd0a4f28419497f9722a3daafe3b4186f6b6457e090600090a35050565b60975460ff16156113f15760405162461bcd60e51b815260206004820152601060248201526f14185d5cd8589b194e881c185d5cd95960821b6044820152606401610503565b6097805460ff191660011790557f62e78cea01bee320cd4e420270b5ea74000d11b0c9f74754ebdbfc544b05a25861133c3390565b600054610100900460ff168061143f575060005460ff16155b61145b5760405162461bcd60e51b815260040161050390611a9c565b600054610100900460ff1615801561147d576000805461ffff19166101011790555b611485611639565b61148d6116a3565b801561121d576000805461ff001916905550565b600054610100900460ff16806114ba575060005460ff16155b6114d65760405162461bcd60e51b815260040161050390611a9c565b600054610100900460ff161580156114f8576000805461ffff19166101011790555b61148d611703565b600054610100900460ff1680611519575060005460ff16155b6115355760405162461bcd60e51b815260040161050390611a9c565b600054610100900460ff16158015611557576000805461ffff19166101011790555b61155f611639565b61148d611773565b60006115bc826040518060400160405280602081526020017f5361666545524332303a206c6f772d6c6576656c2063616c6c206661696c6564815250856001600160a01b03166117e89092919063ffffffff16565b80519091501561128357808060200190518101906115da9190611a15565b6112835760405162461bcd60e51b815260206004820152602a60248201527f5361666545524332303a204552433230206f7065726174696f6e20646964206e6044820152691bdd081cdd58d8d9595960b21b6064820152608401610503565b600054610100900460ff1680611652575060005460ff16155b61166e5760405162461bcd60e51b815260040161050390611a9c565b600054610100900460ff1615801561148d576000805461ffff1916610101179055801561121d576000805461ff001916905550565b600054610100900460ff16806116bc575060005460ff16155b6116d85760405162461bcd60e51b815260040161050390611a9c565b600054610100900460ff161580156116fa576000805461ffff19166101011790555b61148d33611359565b600054610100900460ff168061171c575060005460ff16155b6117385760405162461bcd60e51b815260040161050390611a9c565b600054610100900460ff1615801561175a576000805461ffff19166101011790555b6001606555801561121d576000805461ff001916905550565b600054610100900460ff168061178c575060005460ff16155b6117a85760405162461bcd60e51b815260040161050390611a9c565b600054610100900460ff161580156117ca576000805461ffff19166101011790555b6097805460ff19169055801561121d576000805461ff001916905550565b60606117f78484600085611801565b90505b9392505050565b6060824710156118625760405162461bcd60e51b815260206004820152602660248201527f416464726573733a20696e73756666696369656e742062616c616e636520666f6044820152651c8818d85b1b60d21b6064820152608401610503565b843b6118b05760405162461bcd60e51b815260206004820152601d60248201527f416464726573733a2063616c6c20746f206e6f6e2d636f6e74726163740000006044820152606401610503565b600080866001600160a01b031685876040516118cc9190611a4d565b60006040518083038185875af1925050503d8060008114611909576040519150601f19603f3d011682016040523d82523d6000602084013e61190e565b606091505b509150915061191e828286611929565b979650505050505050565b606083156119385750816117fa565b8251156119485782518084602001fd5b8160405162461bcd60e51b81526004016105039190611a69565b80356001600160a01b038116811461197957600080fd5b919050565b60006020828403121561198f578081fd5b6117fa82611962565b600080600080600060a086880312156119af578081fd5b6119b886611962565b94506119c660208701611962565b93506119d460408701611962565b94979396509394606081013594506080013592915050565b600080604083850312156119fe578182fd5b611a0783611962565b946020939093013593505050565b600060208284031215611a26578081fd5b815180151581146117fa578182fd5b600060208284031215611a46578081fd5b5035919050565b60008251611a5f818460208701611bc4565b9190910192915050565b6020815260008251806020840152611a88816040850160208701611bc4565b601f01601f19169190910160400192915050565b6020808252602e908201527f496e697469616c697a61626c653a20636f6e747261637420697320616c72656160408201526d191e481a5b9a5d1a585b1a5e995960921b606082015260800190565b6020808252818101527f4f776e61626c653a2063616c6c6572206973206e6f7420746865206f776e6572604082015260600190565b6020808252601f908201527f5265656e7472616e637947756172643a207265656e7472616e742063616c6c00604082015260600190565b60008219821115611b6957611b69611bf0565b500190565b600082611b8957634e487b7160e01b81526012600452602481fd5b500490565b6000816000190483118215151615611ba857611ba8611bf0565b500290565b600082821015611bbf57611bbf611bf0565b500390565b60005b83811015611bdf578181015183820152602001611bc7565b838111156112c05750506000910152565b634e487b7160e01b600052601160045260246000fdfea26469706673582212208673069f0992c014f90fba52c615f7fb1611a407df34b9c29cd38e68dfc5502d64736f6c63430008040033",
  "devdoc": {
    "kind": "dev",
    "methods": {
      "owner()": {
        "details": "Returns the address of the current owner."
      },
      "paused()": {
        "details": "Returns true if the contract is paused, and false otherwise."
      },
      "renounceOwnership()": {
        "details": "Leaves the contract without owner. It will not be possible to call `onlyOwner` functions anymore. Can only be called by the current owner. NOTE: Renouncing ownership will leave the contract without an owner, thereby removing any functionality that is only available to the owner."
      },
      "transferOwnership(address)": {
        "details": "Transfers ownership of the contract to a new account (`newOwner`). Can only be called by the current owner."
      }
    },
    "version": 1
  },
  "userdoc": {
    "kind": "user",
    "methods": {},
    "version": 1
  },
  "storageLayout": {
    "storage": [
      {
        "astId": 177,
        "contract": "contracts/staking/TokenStaking.sol:TokenStaking",
        "label": "_initialized",
        "offset": 0,
        "slot": "0",
        "type": "t_bool"
      },
      {
        "astId": 180,
        "contract": "contracts/staking/TokenStaking.sol:TokenStaking",
        "label": "_initializing",
        "offset": 1,
        "slot": "0",
        "type": "t_bool"
      },
      {
        "astId": 4731,
        "contract": "contracts/staking/TokenStaking.sol:TokenStaking",
        "label": "__gap",
        "offset": 0,
        "slot": "1",
        "type": "t_array(t_uint256)50_storage"
      },
      {
        "astId": 56,
        "contract": "contracts/staking/TokenStaking.sol:TokenStaking",
        "label": "_owner",
        "offset": 0,
        "slot": "51",
        "type": "t_address"
      },
      {
        "astId": 170,
        "contract": "contracts/staking/TokenStaking.sol:TokenStaking",
        "label": "__gap",
        "offset": 0,
        "slot": "52",
        "type": "t_array(t_uint256)49_storage"
      },
      {
        "astId": 344,
        "contract": "contracts/staking/TokenStaking.sol:TokenStaking",
        "label": "_status",
        "offset": 0,
        "slot": "101",
        "type": "t_uint256"
      },
      {
        "astId": 387,
        "contract": "contracts/staking/TokenStaking.sol:TokenStaking",
        "label": "__gap",
        "offset": 0,
        "slot": "102",
        "type": "t_array(t_uint256)49_storage"
      },
      {
        "astId": 238,
        "contract": "contracts/staking/TokenStaking.sol:TokenStaking",
        "label": "_paused",
        "offset": 0,
        "slot": "151",
        "type": "t_bool"
      },
      {
        "astId": 329,
        "contract": "contracts/staking/TokenStaking.sol:TokenStaking",
        "label": "__gap",
        "offset": 0,
        "slot": "152",
        "type": "t_array(t_uint256)49_storage"
      },
      {
        "astId": 22910,
        "contract": "contracts/staking/TokenStaking.sol:TokenStaking",
        "label": "rewardsToken",
        "offset": 0,
        "slot": "201",
        "type": "t_contract(IERC20Upgradeable)2639"
      },
      {
        "astId": 22913,
        "contract": "contracts/staking/TokenStaking.sol:TokenStaking",
        "label": "stakingToken",
        "offset": 0,
        "slot": "202",
        "type": "t_contract(IERC20Upgradeable)2639"
      },
      {
        "astId": 22915,
        "contract": "contracts/staking/TokenStaking.sol:TokenStaking",
        "label": "lockPeriod",
        "offset": 0,
        "slot": "203",
        "type": "t_uint256"
      },
      {
        "astId": 22917,
        "contract": "contracts/staking/TokenStaking.sol:TokenStaking",
        "label": "periodFinish",
        "offset": 0,
        "slot": "204",
        "type": "t_uint256"
      },
      {
        "astId": 22919,
        "contract": "contracts/staking/TokenStaking.sol:TokenStaking",
        "label": "rewardRate",
        "offset": 0,
        "slot": "205",
        "type": "t_uint256"
      },
      {
        "astId": 22921,
        "contract": "contracts/staking/TokenStaking.sol:TokenStaking",
        "label": "rewardsDuration",
        "offset": 0,
        "slot": "206",
        "type": "t_uint256"
      },
      {
        "astId": 22923,
        "contract": "contracts/staking/TokenStaking.sol:TokenStaking",
        "label": "lastUpdateTime",
        "offset": 0,
        "slot": "207",
        "type": "t_uint256"
      },
      {
        "astId": 22925,
        "contract": "contracts/staking/TokenStaking.sol:TokenStaking",
        "label": "rewardPerTokenStored",
        "offset": 0,
        "slot": "208",
        "type": "t_uint256"
      },
      {
        "astId": 22927,
        "contract": "contracts/staking/TokenStaking.sol:TokenStaking",
        "label": "rewardsDistribution",
        "offset": 0,
        "slot": "209",
        "type": "t_address"
      },
      {
        "astId": 22931,
        "contract": "contracts/staking/TokenStaking.sol:TokenStaking",
        "label": "userRewardPerTokenPaid",
        "offset": 0,
        "slot": "210",
        "type": "t_mapping(t_address,t_uint256)"
      },
      {
        "astId": 22935,
        "contract": "contracts/staking/TokenStaking.sol:TokenStaking",
        "label": "rewards",
        "offset": 0,
        "slot": "211",
        "type": "t_mapping(t_address,t_uint256)"
      },
      {
        "astId": 22937,
        "contract": "contracts/staking/TokenStaking.sol:TokenStaking",
        "label": "_totalSupply",
        "offset": 0,
        "slot": "212",
        "type": "t_uint256"
      },
      {
        "astId": 22941,
        "contract": "contracts/staking/TokenStaking.sol:TokenStaking",
        "label": "_balances",
        "offset": 0,
        "slot": "213",
        "type": "t_mapping(t_address,t_uint256)"
      },
      {
        "astId": 22945,
        "contract": "contracts/staking/TokenStaking.sol:TokenStaking",
        "label": "lastStakeTime",
        "offset": 0,
        "slot": "214",
        "type": "t_mapping(t_address,t_uint256)"
      }
    ],
    "types": {
      "t_address": {
        "encoding": "inplace",
        "label": "address",
        "numberOfBytes": "20"
      },
      "t_array(t_uint256)49_storage": {
        "base": "t_uint256",
        "encoding": "inplace",
        "label": "uint256[49]",
        "numberOfBytes": "1568"
      },
      "t_array(t_uint256)50_storage": {
        "base": "t_uint256",
        "encoding": "inplace",
        "label": "uint256[50]",
        "numberOfBytes": "1600"
      },
      "t_bool": {
        "encoding": "inplace",
        "label": "bool",
        "numberOfBytes": "1"
      },
      "t_contract(IERC20Upgradeable)2639": {
        "encoding": "inplace",
        "label": "contract IERC20Upgradeable",
        "numberOfBytes": "20"
      },
      "t_mapping(t_address,t_uint256)": {
        "encoding": "mapping",
        "key": "t_address",
        "label": "mapping(address => uint256)",
        "numberOfBytes": "32",
        "value": "t_uint256"
      },
      "t_uint256": {
        "encoding": "inplace",
        "label": "uint256",
        "numberOfBytes": "32"
      }
    }
  }
}