{
  "address": "0x080F48a176093EDB3c4e0dFe1c0c6118e1f8c4Cb",
  "abi": [
    {
      "anonymous": false,
      "inputs": [
        {
          "indexed": true,
          "internalType": "address",
          "name": "previousOwner",
          "type": "address"
        },
        {
          "indexed": true,
          "internalType": "address",
          "name": "newOwner",
          "type": "address"
        }
      ],
      "name": "OwnershipTransferred",
      "type": "event"
    },
    {
      "anonymous": false,
      "inputs": [
        {
          "indexed": false,
          "internalType": "address",
          "name": "account",
          "type": "address"
        }
      ],
      "name": "Paused",
      "type": "event"
    },
    {
      "anonymous": false,
      "inputs": [
        {
          "indexed": false,
          "internalType": "address",
          "name": "token",
          "type": "address"
        },
        {
          "indexed": false,
          "internalType": "uint256",
          "name": "amount",
          "type": "uint256"
        }
      ],
      "name": "Recovered",
      "type": "event"
    },
    {
      "anonymous": false,
      "inputs": [
        {
          "indexed": false,
          "internalType": "uint256",
          "name": "reward",
          "type": "uint256"
        }
      ],
      "name": "RewardAdded",
      "type": "event"
    },
    {
      "anonymous": false,
      "inputs": [
        {
          "indexed": true,
          "internalType": "address",
          "name": "user",
          "type": "address"
        },
        {
          "indexed": false,
          "internalType": "uint256",
          "name": "reward",
          "type": "uint256"
        }
      ],
      "name": "RewardPaid",
      "type": "event"
    },
    {
      "anonymous": false,
      "inputs": [
        {
          "indexed": false,
          "internalType": "address",
          "name": "newDistribution",
          "type": "address"
        }
      ],
      "name": "RewardsDistributionUpdated",
      "type": "event"
    },
    {
      "anonymous": false,
      "inputs": [
        {
          "indexed": false,
          "internalType": "uint256",
          "name": "newDuration",
          "type": "uint256"
        }
      ],
      "name": "RewardsDurationUpdated",
      "type": "event"
    },
    {
      "anonymous": false,
      "inputs": [
        {
          "indexed": true,
          "internalType": "address",
          "name": "user",
          "type": "address"
        },
        {
          "indexed": false,
          "internalType": "uint256",
          "name": "amount",
          "type": "uint256"
        }
      ],
      "name": "Staked",
      "type": "event"
    },
    {
      "anonymous": false,
      "inputs": [
        {
          "indexed": false,
          "internalType": "address",
          "name": "account",
          "type": "address"
        }
      ],
      "name": "Unpaused",
      "type": "event"
    },
    {
      "anonymous": false,
      "inputs": [
        {
          "indexed": true,
          "internalType": "address",
          "name": "user",
          "type": "address"
        },
        {
          "indexed": false,
          "internalType": "uint256",
          "name": "amount",
          "type": "uint256"
        }
      ],
      "name": "Withdrawn",
      "type": "event"
    },
    {
      "inputs": [
        {
          "internalType": "address",
          "name": "account",
          "type": "address"
        }
      ],
      "name": "balanceOf",
      "outputs": [
        {
          "internalType": "uint256",
          "name": "",
          "type": "uint256"
        }
      ],
      "stateMutability": "view",
      "type": "function"
    },
    {
      "inputs": [
        {
          "internalType": "address",
          "name": "account",
          "type": "address"
        }
      ],
      "name": "earned",
      "outputs": [
        {
          "internalType": "uint256",
          "name": "",
          "type": "uint256"
        }
      ],
      "stateMutability": "view",
      "type": "function"
    },
    {
      "inputs": [],
      "name": "exit",
      "outputs": [],
      "stateMutability": "nonpayable",
      "type": "function"
    },
    {
      "inputs": [],
      "name": "getReward",
      "outputs": [],
      "stateMutability": "nonpayable",
      "type": "function"
    },
    {
      "inputs": [],
      "name": "getRewardForDuration",
      "outputs": [
        {
          "internalType": "uint256",
          "name": "",
          "type": "uint256"
        }
      ],
      "stateMutability": "view",
      "type": "function"
    },
    {
      "inputs": [
        {
          "internalType": "address",
          "name": "_rewardsDistribution",
          "type": "address"
        },
        {
          "internalType": "address",
          "name": "_rewardsToken",
          "type": "address"
        },
        {
          "internalType": "address",
          "name": "_stakingToken",
          "type": "address"
        },
        {
          "internalType": "uint256",
          "name": "_rewardsDuration",
          "type": "uint256"
        }
      ],
      "name": "initialize",
      "outputs": [],
      "stateMutability": "nonpayable",
      "type": "function"
    },
    {
      "inputs": [],
      "name": "lastTimeRewardApplicable",
      "outputs": [
        {
          "internalType": "uint256",
          "name": "",
          "type": "uint256"
        }
      ],
      "stateMutability": "view",
      "type": "function"
    },
    {
      "inputs": [],
      "name": "lastUpdateTime",
      "outputs": [
        {
          "internalType": "uint256",
          "name": "",
          "type": "uint256"
        }
      ],
      "stateMutability": "view",
      "type": "function"
    },
    {
      "inputs": [
        {
          "internalType": "uint256",
          "name": "reward",
          "type": "uint256"
        }
      ],
      "name": "notifyRewardAmount",
      "outputs": [],
      "stateMutability": "nonpayable",
      "type": "function"
    },
    {
      "inputs": [],
      "name": "owner",
      "outputs": [
        {
          "internalType": "address",
          "name": "",
          "type": "address"
        }
      ],
      "stateMutability": "view",
      "type": "function"
    },
    {
      "inputs": [],
      "name": "pause",
      "outputs": [],
      "stateMutability": "nonpayable",
      "type": "function"
    },
    {
      "inputs": [],
      "name": "paused",
      "outputs": [
        {
          "internalType": "bool",
          "name": "",
          "type": "bool"
        }
      ],
      "stateMutability": "view",
      "type": "function"
    },
    {
      "inputs": [],
      "name": "periodFinish",
      "outputs": [
        {
          "internalType": "uint256",
          "name": "",
          "type": "uint256"
        }
      ],
      "stateMutability": "view",
      "type": "function"
    },
    {
      "inputs": [
        {
          "internalType": "address",
          "name": "tokenAddress",
          "type": "address"
        },
        {
          "internalType": "uint256",
          "name": "tokenAmount",
          "type": "uint256"
        }
      ],
      "name": "recoverERC20",
      "outputs": [],
      "stateMutability": "nonpayable",
      "type": "function"
    },
    {
      "inputs": [],
      "name": "renounceOwnership",
      "outputs": [],
      "stateMutability": "nonpayable",
      "type": "function"
    },
    {
      "inputs": [],
      "name": "rewardPerToken",
      "outputs": [
        {
          "internalType": "uint256",
          "name": "",
          "type": "uint256"
        }
      ],
      "stateMutability": "view",
      "type": "function"
    },
    {
      "inputs": [],
      "name": "rewardPerTokenStored",
      "outputs": [
        {
          "internalType": "uint256",
          "name": "",
          "type": "uint256"
        }
      ],
      "stateMutability": "view",
      "type": "function"
    },
    {
      "inputs": [],
      "name": "rewardRate",
      "outputs": [
        {
          "internalType": "uint256",
          "name": "",
          "type": "uint256"
        }
      ],
      "stateMutability": "view",
      "type": "function"
    },
    {
      "inputs": [
        {
          "internalType": "address",
          "name": "",
          "type": "address"
        }
      ],
      "name": "rewards",
      "outputs": [
        {
          "internalType": "uint256",
          "name": "",
          "type": "uint256"
        }
      ],
      "stateMutability": "view",
      "type": "function"
    },
    {
      "inputs": [],
      "name": "rewardsDistribution",
      "outputs": [
        {
          "internalType": "address",
          "name": "",
          "type": "address"
        }
      ],
      "stateMutability": "view",
      "type": "function"
    },
    {
      "inputs": [],
      "name": "rewardsDuration",
      "outputs": [
        {
          "internalType": "uint256",
          "name": "",
          "type": "uint256"
        }
      ],
      "stateMutability": "view",
      "type": "function"
    },
    {
      "inputs": [],
      "name": "rewardsToken",
      "outputs": [
        {
          "internalType": "contract IERC20Upgradeable",
          "name": "",
          "type": "address"
        }
      ],
      "stateMutability": "view",
      "type": "function"
    },
    {
      "inputs": [
        {
          "internalType": "address",
          "name": "_rewardsDistribution",
          "type": "address"
        }
      ],
      "name": "setRewardsDistribution",
      "outputs": [],
      "stateMutability": "nonpayable",
      "type": "function"
    },
    {
      "inputs": [
        {
          "internalType": "uint256",
          "name": "_rewardsDuration",
          "type": "uint256"
        }
      ],
      "name": "setRewardsDuration",
      "outputs": [],
      "stateMutability": "nonpayable",
      "type": "function"
    },
    {
      "inputs": [
        {
          "internalType": "uint256",
          "name": "amount",
          "type": "uint256"
        }
      ],
      "name": "stake",
      "outputs": [],
      "stateMutability": "nonpayable",
      "type": "function"
    },
    {
      "inputs": [],
      "name": "stakingToken",
      "outputs": [
        {
          "internalType": "contract IERC20Upgradeable",
          "name": "",
          "type": "address"
        }
      ],
      "stateMutability": "view",
      "type": "function"
    },
    {
      "inputs": [],
      "name": "totalSupply",
      "outputs": [
        {
          "internalType": "uint256",
          "name": "",
          "type": "uint256"
        }
      ],
      "stateMutability": "view",
      "type": "function"
    },
    {
      "inputs": [
        {
          "internalType": "address",
          "name": "newOwner",
          "type": "address"
        }
      ],
      "name": "transferOwnership",
      "outputs": [],
      "stateMutability": "nonpayable",
      "type": "function"
    },
    {
      "inputs": [],
      "name": "unpause",
      "outputs": [],
      "stateMutability": "nonpayable",
      "type": "function"
    },
    {
      "inputs": [
        {
          "internalType": "address",
          "name": "",
          "type": "address"
        }
      ],
      "name": "userRewardPerTokenPaid",
      "outputs": [
        {
          "internalType": "uint256",
          "name": "",
          "type": "uint256"
        }
      ],
      "stateMutability": "view",
      "type": "function"
    },
    {
      "inputs": [
        {
          "internalType": "uint256",
          "name": "amount",
          "type": "uint256"
        }
      ],
      "name": "withdraw",
      "outputs": [],
      "stateMutability": "nonpayable",
      "type": "function"
    }
  ],
  "transactionHash": "0xad5d4c05f2503b72949ec8bcb6d1086d538b94062c114e85cec638157929a486",
  "args": [],
  "numDeployments": 1,
  "solcInputHash": "05647119360b4ea449c3a00c7d90af72",
  "bytecode": "0x608060405234801561001057600080fd5b50611ad6806100206000396000f3fe608060405234801561001057600080fd5b50600436106101e45760003560e01c80637b0a47ee1161010f578063cc1a378f116100a2578063df136d6511610071578063df136d65146103d2578063e9fad8ee146103db578063ebe2b12b146103e3578063f2fde38b146103ec57600080fd5b8063cc1a378f14610391578063cd3daf9d146103a4578063cf756fdf146103ac578063d1af0c7d146103bf57600080fd5b80638b876347116100de5780638b876347146103445780638da5cb5b14610364578063a694fc3a14610375578063c8f33c911461038857600080fd5b80637b0a47ee1461031857806380faa57d146103215780638456cb59146103295780638980f11f1461033157600080fd5b80633c6b16ab116101875780635c975abb116101565780635c975abb146102be57806370a08231146102d4578063715018a6146102fd57806372f702f31461030557600080fd5b80633c6b16ab146102705780633d18b912146102835780633f4ba83a1461028b5780633fc6df6e1461029357600080fd5b806319762143116101c357806319762143146102375780631c1f78eb1461024c5780632e1a7d4d14610254578063386a95251461026757600080fd5b80628cc262146101e95780630700037d1461020f57806318160ddd1461022f575b600080fd5b6101fc6101f7366004611822565b6103ff565b6040519081526020015b60405180910390f35b6101fc61021d366004611822565b60d26020526000908152604090205481565b60d3546101fc565b61024a610245366004611822565b61047c565b005b6101fc61055a565b61024a6102623660046118cf565b610571565b6101fc60cd5481565b61024a61027e3660046118cf565b6106c9565b61024a610844565b61024a610941565b60d0546102a6906001600160a01b031681565b6040516001600160a01b039091168152602001610206565b60975460ff166040519015158152602001610206565b6101fc6102e2366004611822565b6001600160a01b0316600090815260d4602052604090205490565b61024a610975565b60ca546102a6906001600160a01b031681565b6101fc60cc5481565b6101fc6109a9565b61024a6109c0565b61024a61033f366004611886565b6109f2565b6101fc610352366004611822565b60d16020526000908152604090205481565b6033546001600160a01b03166102a6565b61024a6103833660046118cf565b610b02565b6101fc60ce5481565b61024a61039f3660046118cf565b610c91565b6101fc610d8d565b61024a6103ba36600461183c565b610def565b60c9546102a6906001600160a01b031681565b6101fc60cf5481565b61024a611008565b6101fc60cb5481565b61024a6103fa366004611822565b611029565b6001600160a01b038116600090815260d2602090815260408083205460d1909252822054670de0b6b3a764000090610435610d8d565b61043f9190611a47565b6001600160a01b038516600090815260d460205260409020546104629190611a28565b61046c9190611a08565b61047691906119f0565b92915050565b6033546001600160a01b031633146104af5760405162461bcd60e51b81526004016104a690611984565b60405180910390fd5b6001600160a01b0381166105055760405162461bcd60e51b815260206004820152601e60248201527f726577617264446973747269627574696f6e206d757374206e6f74203078000060448201526064016104a6565b60d080546001600160a01b0319166001600160a01b0383169081179091556040519081527f1c794a043683a294127c95bc365bae91b63b651eb9884a2c9120afee2bb690b4906020015b60405180910390a150565b600060cd5460cc5461056c9190611a28565b905090565b600260655414156105945760405162461bcd60e51b81526004016104a6906119b9565b6002606555336105a2610d8d565b60cf556105ad6109a9565b60ce556001600160a01b038116156105f4576105c8816103ff565b6001600160a01b038216600090815260d2602090815260408083209390935560cf5460d1909152919020555b600082116106385760405162461bcd60e51b8152602060048201526011602482015270043616e6e6f74207769746864726177203607c1b60448201526064016104a6565b8160d3600082825461064a9190611a47565b909155505033600090815260d460205260408120805484929061066e908490611a47565b909155505060ca5461068a906001600160a01b031633846110c4565b60405182815233907f7084f5476618d8e60b11ef0d7d3f06914655adb8793e28ff7f018d4c76d505d5906020015b60405180910390a250506001606555565b60006106d3610d8d565b60cf556106de6109a9565b60ce556001600160a01b03811615610725576106f9816103ff565b6001600160a01b038216600090815260d2602090815260408083209390935560cf5460d1909152919020555b60d0546001600160a01b0316331461077f5760405162461bcd60e51b815260206004820152601760248201527f4e6f742072657761726473446973747269627574696f6e00000000000000000060448201526064016104a6565b60c954610797906001600160a01b031633308561112c565b60cb5442106107b55760cd546107ad9083611a08565b60cc556107f7565b60004260cb546107c59190611a47565b9050600060cc54826107d79190611a28565b60cd549091506107e782866119f0565b6107f19190611a08565b60cc5550505b4260ce81905560cd54610809916119f0565b60cb556040518281527fde88a922e0d3b88b24e9623efeb464919c6bf9f66857a65e2bfcf2ce87a9433d906020015b60405180910390a15050565b600260655414156108675760405162461bcd60e51b81526004016104a6906119b9565b600260655533610875610d8d565b60cf556108806109a9565b60ce556001600160a01b038116156108c75761089b816103ff565b6001600160a01b038216600090815260d2602090815260408083209390935560cf5460d1909152919020555b33600090815260d2602052604090205480156109385733600081815260d2602052604081205560c954610906916001600160a01b0390911690836110c4565b60405181815233907fe2403640ba68fed3a2f88b7557551d1993f84b99bb10ff833f0cf8db0c5e0486906020016106b8565b50506001606555565b6033546001600160a01b0316331461096b5760405162461bcd60e51b81526004016104a690611984565b61097361116a565b565b6033546001600160a01b0316331461099f5760405162461bcd60e51b81526004016104a690611984565b61097360006111fd565b600060cb5442106109bb575060cb5490565b504290565b6033546001600160a01b031633146109ea5760405162461bcd60e51b81526004016104a690611984565b61097361124f565b6033546001600160a01b03163314610a1c5760405162461bcd60e51b81526004016104a690611984565b60ca546001600160a01b03838116911614801590610a48575060c9546001600160a01b03838116911614155b610aaf5760405162461bcd60e51b815260206004820152603260248201527f43616e6e6f7420776974686472617720746865207374616b696e6720746f6b65604482015271371030b732103932bbb0b932103a37b5b2b760711b60648201526084016104a6565b610ac36001600160a01b03831633836110c4565b604080516001600160a01b0384168152602081018390527f8c1256b8896378cd5044f80c202f9772b9d77dc85c8a6eb51967210b09bfaa289101610838565b60026065541415610b255760405162461bcd60e51b81526004016104a6906119b9565b600260655560975460ff1615610b705760405162461bcd60e51b815260206004820152601060248201526f14185d5cd8589b194e881c185d5cd95960821b60448201526064016104a6565b33610b79610d8d565b60cf55610b846109a9565b60ce556001600160a01b03811615610bcb57610b9f816103ff565b6001600160a01b038216600090815260d2602090815260408083209390935560cf5460d1909152919020555b60008211610c0c5760405162461bcd60e51b815260206004820152600e60248201526d043616e6e6f74207374616b6520360941b60448201526064016104a6565b8160d36000828254610c1e91906119f0565b909155505033600090815260d4602052604081208054849290610c429084906119f0565b909155505060ca54610c5f906001600160a01b031633308561112c565b60405182815233907f9e71bc8eea02a63969f509818f2dafb9254532904319f9dbda79b67bd34a5f3d906020016106b8565b6033546001600160a01b03163314610cbb5760405162461bcd60e51b81526004016104a690611984565b60cb544211610d585760405162461bcd60e51b815260206004820152605860248201527f50726576696f7573207265776172647320706572696f64206d7573742062652060448201527f636f6d706c657465206265666f7265206368616e67696e67207468652064757260648201527f6174696f6e20666f7220746865206e657720706572696f640000000000000000608482015260a4016104a6565b60cd8190556040518181527ffb46ca5a5e06d4540d6387b930a7c978bce0db5f449ec6b3f5d07c6e1d44f2d39060200161054f565b600060d35460001415610da1575060cf5490565b60d35460cc5460ce54610db26109a9565b610dbc9190611a47565b610dc69190611a28565b610dd890670de0b6b3a7640000611a28565b610de29190611a08565b60cf5461056c91906119f0565b600054610100900460ff1680610e08575060005460ff16155b610e245760405162461bcd60e51b81526004016104a690611936565b600054610100900460ff16158015610e46576000805461ffff19166101011790555b6001600160a01b038416610e9c5760405162461bcd60e51b815260206004820152601760248201527f726577617264546f6b656e206d757374206e6f7420307800000000000000000060448201526064016104a6565b6001600160a01b038316610ef25760405162461bcd60e51b815260206004820152601860248201527f7374616b696e67546f6b656e206d757374206e6f74203078000000000000000060448201526064016104a6565b6001600160a01b038516610f485760405162461bcd60e51b815260206004820152601e60248201527f726577617264446973747269627574696f6e206d757374206e6f74203078000060448201526064016104a6565b81610f955760405162461bcd60e51b815260206004820152601a60248201527f726577617264734475726174696f6e206d757374206e6f74203000000000000060448201526064016104a6565b610f9d6112ca565b610fa5611345565b610fad6113a4565b60c980546001600160a01b038087166001600160a01b03199283161790925560ca805486841690831617905560d080549288169290911691909117905560cd8290558015611001576000805461ff00191690555b5050505050565b33600090815260d4602052604090205461102190610571565b610973610844565b6033546001600160a01b031633146110535760405162461bcd60e51b81526004016104a690611984565b6001600160a01b0381166110b85760405162461bcd60e51b815260206004820152602660248201527f4f776e61626c653a206e6577206f776e657220697320746865207a65726f206160448201526564647265737360d01b60648201526084016104a6565b6110c1816111fd565b50565b6040516001600160a01b03831660248201526044810182905261112790849063a9059cbb60e01b906064015b60408051601f198184030181529190526020810180516001600160e01b03166001600160e01b03199093169290921790915261140b565b505050565b6040516001600160a01b03808516602483015283166044820152606481018290526111649085906323b872dd60e01b906084016110f0565b50505050565b60975460ff166111b35760405162461bcd60e51b815260206004820152601460248201527314185d5cd8589b194e881b9bdd081c185d5cd95960621b60448201526064016104a6565b6097805460ff191690557f5db9ee0a495bf2e6ff9c91a7834c1ba4fdd244a5e8aa4e537bd38aeae4b073aa335b6040516001600160a01b03909116815260200160405180910390a1565b603380546001600160a01b038381166001600160a01b0319831681179093556040519116919082907f8be0079c531659141344cd1fd0a4f28419497f9722a3daafe3b4186f6b6457e090600090a35050565b60975460ff16156112955760405162461bcd60e51b815260206004820152601060248201526f14185d5cd8589b194e881c185d5cd95960821b60448201526064016104a6565b6097805460ff191660011790557f62e78cea01bee320cd4e420270b5ea74000d11b0c9f74754ebdbfc544b05a2586111e03390565b600054610100900460ff16806112e3575060005460ff16155b6112ff5760405162461bcd60e51b81526004016104a690611936565b600054610100900460ff16158015611321576000805461ffff19166101011790555b6113296114dd565b611331611547565b80156110c1576000805461ff001916905550565b600054610100900460ff168061135e575060005460ff16155b61137a5760405162461bcd60e51b81526004016104a690611936565b600054610100900460ff1615801561139c576000805461ffff19166101011790555b6113316115a7565b600054610100900460ff16806113bd575060005460ff16155b6113d95760405162461bcd60e51b81526004016104a690611936565b600054610100900460ff161580156113fb576000805461ffff19166101011790555b6114036114dd565b611331611617565b6000611460826040518060400160405280602081526020017f5361666545524332303a206c6f772d6c6576656c2063616c6c206661696c6564815250856001600160a01b031661168c9092919063ffffffff16565b805190915015611127578080602001905181019061147e91906118af565b6111275760405162461bcd60e51b815260206004820152602a60248201527f5361666545524332303a204552433230206f7065726174696f6e20646964206e6044820152691bdd081cdd58d8d9595960b21b60648201526084016104a6565b600054610100900460ff16806114f6575060005460ff16155b6115125760405162461bcd60e51b81526004016104a690611936565b600054610100900460ff16158015611331576000805461ffff191661010117905580156110c1576000805461ff001916905550565b600054610100900460ff1680611560575060005460ff16155b61157c5760405162461bcd60e51b81526004016104a690611936565b600054610100900460ff1615801561159e576000805461ffff19166101011790555b611331336111fd565b600054610100900460ff16806115c0575060005460ff16155b6115dc5760405162461bcd60e51b81526004016104a690611936565b600054610100900460ff161580156115fe576000805461ffff19166101011790555b600160655580156110c1576000805461ff001916905550565b600054610100900460ff1680611630575060005460ff16155b61164c5760405162461bcd60e51b81526004016104a690611936565b600054610100900460ff1615801561166e576000805461ffff19166101011790555b6097805460ff1916905580156110c1576000805461ff001916905550565b606061169b84846000856116a5565b90505b9392505050565b6060824710156117065760405162461bcd60e51b815260206004820152602660248201527f416464726573733a20696e73756666696369656e742062616c616e636520666f6044820152651c8818d85b1b60d21b60648201526084016104a6565b843b6117545760405162461bcd60e51b815260206004820152601d60248201527f416464726573733a2063616c6c20746f206e6f6e2d636f6e747261637400000060448201526064016104a6565b600080866001600160a01b0316858760405161177091906118e7565b60006040518083038185875af1925050503d80600081146117ad576040519150601f19603f3d011682016040523d82523d6000602084013e6117b2565b606091505b50915091506117c28282866117cd565b979650505050505050565b606083156117dc57508161169e565b8251156117ec5782518084602001fd5b8160405162461bcd60e51b81526004016104a69190611903565b80356001600160a01b038116811461181d57600080fd5b919050565b600060208284031215611833578081fd5b61169e82611806565b60008060008060808587031215611851578283fd5b61185a85611806565b935061186860208601611806565b925061187660408601611806565b9396929550929360600135925050565b60008060408385031215611898578182fd5b6118a183611806565b946020939093013593505050565b6000602082840312156118c0578081fd5b8151801515811461169e578182fd5b6000602082840312156118e0578081fd5b5035919050565b600082516118f9818460208701611a5e565b9190910192915050565b6020815260008251806020840152611922816040850160208701611a5e565b601f01601f19169190910160400192915050565b6020808252602e908201527f496e697469616c697a61626c653a20636f6e747261637420697320616c72656160408201526d191e481a5b9a5d1a585b1a5e995960921b606082015260800190565b6020808252818101527f4f776e61626c653a2063616c6c6572206973206e6f7420746865206f776e6572604082015260600190565b6020808252601f908201527f5265656e7472616e637947756172643a207265656e7472616e742063616c6c00604082015260600190565b60008219821115611a0357611a03611a8a565b500190565b600082611a2357634e487b7160e01b81526012600452602481fd5b500490565b6000816000190483118215151615611a4257611a42611a8a565b500290565b600082821015611a5957611a59611a8a565b500390565b60005b83811015611a79578181015183820152602001611a61565b838111156111645750506000910152565b634e487b7160e01b600052601160045260246000fdfea26469706673582212207adcb9a99cea2be8083819d6b9869df96d4959977a8f1285cb401d1b9a5701ea64736f6c63430008040033",
  "devdoc": {
    "kind": "dev",
    "methods": {
      "owner()": {
        "details": "Returns the address of the current owner."
      },
      "paused()": {
        "details": "Returns true if the contract is paused, and false otherwise."
      },
      "renounceOwnership()": {
        "details": "Leaves the contract without owner. It will not be possible to call `onlyOwner` functions anymore. Can only be called by the current owner. NOTE: Renouncing ownership will leave the contract without an owner, thereby removing any functionality that is only available to the owner."
      },
      "transferOwnership(address)": {
        "details": "Transfers ownership of the contract to a new account (`newOwner`). Can only be called by the current owner."
      }
    },
    "version": 1
  },
  "userdoc": {
    "kind": "user",
    "methods": {},
    "version": 1
  },
  "storageLayout": {
    "storage": [
      {
        "astId": 177,
        "contract": "contracts/staking/TokenStaking.sol:TokenStaking",
        "label": "_initialized",
        "offset": 0,
        "slot": "0",
        "type": "t_bool"
      },
      {
        "astId": 180,
        "contract": "contracts/staking/TokenStaking.sol:TokenStaking",
        "label": "_initializing",
        "offset": 1,
        "slot": "0",
        "type": "t_bool"
      },
      {
        "astId": 3131,
        "contract": "contracts/staking/TokenStaking.sol:TokenStaking",
        "label": "__gap",
        "offset": 0,
        "slot": "1",
        "type": "t_array(t_uint256)50_storage"
      },
      {
        "astId": 56,
        "contract": "contracts/staking/TokenStaking.sol:TokenStaking",
        "label": "_owner",
        "offset": 0,
        "slot": "51",
        "type": "t_address"
      },
      {
        "astId": 170,
        "contract": "contracts/staking/TokenStaking.sol:TokenStaking",
        "label": "__gap",
        "offset": 0,
        "slot": "52",
        "type": "t_array(t_uint256)49_storage"
      },
      {
        "astId": 344,
        "contract": "contracts/staking/TokenStaking.sol:TokenStaking",
        "label": "_status",
        "offset": 0,
        "slot": "101",
        "type": "t_uint256"
      },
      {
        "astId": 387,
        "contract": "contracts/staking/TokenStaking.sol:TokenStaking",
        "label": "__gap",
        "offset": 0,
        "slot": "102",
        "type": "t_array(t_uint256)49_storage"
      },
      {
        "astId": 238,
        "contract": "contracts/staking/TokenStaking.sol:TokenStaking",
        "label": "_paused",
        "offset": 0,
        "slot": "151",
        "type": "t_bool"
      },
      {
        "astId": 329,
        "contract": "contracts/staking/TokenStaking.sol:TokenStaking",
        "label": "__gap",
        "offset": 0,
        "slot": "152",
        "type": "t_array(t_uint256)49_storage"
      },
      {
        "astId": 19861,
        "contract": "contracts/staking/TokenStaking.sol:TokenStaking",
        "label": "rewardsToken",
        "offset": 0,
        "slot": "201",
        "type": "t_contract(IERC20Upgradeable)1039"
      },
      {
        "astId": 19864,
        "contract": "contracts/staking/TokenStaking.sol:TokenStaking",
        "label": "stakingToken",
        "offset": 0,
        "slot": "202",
        "type": "t_contract(IERC20Upgradeable)1039"
      },
      {
        "astId": 19866,
        "contract": "contracts/staking/TokenStaking.sol:TokenStaking",
        "label": "periodFinish",
        "offset": 0,
        "slot": "203",
        "type": "t_uint256"
      },
      {
        "astId": 19868,
        "contract": "contracts/staking/TokenStaking.sol:TokenStaking",
        "label": "rewardRate",
        "offset": 0,
        "slot": "204",
        "type": "t_uint256"
      },
      {
        "astId": 19870,
        "contract": "contracts/staking/TokenStaking.sol:TokenStaking",
        "label": "rewardsDuration",
        "offset": 0,
        "slot": "205",
        "type": "t_uint256"
      },
      {
        "astId": 19872,
        "contract": "contracts/staking/TokenStaking.sol:TokenStaking",
        "label": "lastUpdateTime",
        "offset": 0,
        "slot": "206",
        "type": "t_uint256"
      },
      {
        "astId": 19874,
        "contract": "contracts/staking/TokenStaking.sol:TokenStaking",
        "label": "rewardPerTokenStored",
        "offset": 0,
        "slot": "207",
        "type": "t_uint256"
      },
      {
        "astId": 19876,
        "contract": "contracts/staking/TokenStaking.sol:TokenStaking",
        "label": "rewardsDistribution",
        "offset": 0,
        "slot": "208",
        "type": "t_address"
      },
      {
        "astId": 19880,
        "contract": "contracts/staking/TokenStaking.sol:TokenStaking",
        "label": "userRewardPerTokenPaid",
        "offset": 0,
        "slot": "209",
        "type": "t_mapping(t_address,t_uint256)"
      },
      {
        "astId": 19884,
        "contract": "contracts/staking/TokenStaking.sol:TokenStaking",
        "label": "rewards",
        "offset": 0,
        "slot": "210",
        "type": "t_mapping(t_address,t_uint256)"
      },
      {
        "astId": 19886,
        "contract": "contracts/staking/TokenStaking.sol:TokenStaking",
        "label": "_totalSupply",
        "offset": 0,
        "slot": "211",
        "type": "t_uint256"
      },
      {
        "astId": 19890,
        "contract": "contracts/staking/TokenStaking.sol:TokenStaking",
        "label": "_balances",
        "offset": 0,
        "slot": "212",
        "type": "t_mapping(t_address,t_uint256)"
      }
    ],
    "types": {
      "t_address": {
        "encoding": "inplace",
        "label": "address",
        "numberOfBytes": "20"
      },
      "t_array(t_uint256)49_storage": {
        "base": "t_uint256",
        "encoding": "inplace",
        "label": "uint256[49]",
        "numberOfBytes": "1568"
      },
      "t_array(t_uint256)50_storage": {
        "base": "t_uint256",
        "encoding": "inplace",
        "label": "uint256[50]",
        "numberOfBytes": "1600"
      },
      "t_bool": {
        "encoding": "inplace",
        "label": "bool",
        "numberOfBytes": "1"
      },
      "t_contract(IERC20Upgradeable)1039": {
        "encoding": "inplace",
        "label": "contract IERC20Upgradeable",
        "numberOfBytes": "20"
      },
      "t_mapping(t_address,t_uint256)": {
        "encoding": "mapping",
        "key": "t_address",
        "label": "mapping(address => uint256)",
        "numberOfBytes": "32",
        "value": "t_uint256"
      },
      "t_uint256": {
        "encoding": "inplace",
        "label": "uint256",
        "numberOfBytes": "32"
      }
    }
  }
}